:03000000020003F8
:0C000300787FE4F6D8FD75810902004A00
:0400CE000208000123
:10008F002091FD7F407E4B1200BB2091F3E5096468
:10009F000145087008C2A0F508F50980E3E5094598
:0C00AF000870DDD2A0F50875090180D4AE
:1000BB00D3EF9400EE648094804007EF1F70F11E25
:0300CB0080EE22A2
:10000F0002008FE493A3F8E493A34003F68001F278
:10001F0008DFF48029E493A3F85407240CC8C333F2
:10002F00C4540F4420C8834004F456800146F6DFC1
:10003F00E4800B01020408102040809000CEE47E83
:10004F00019360BCA3FF543F30E509541FFEE493B6
:10005F00A360010ECF54C025E060A840B8E493A37D
:10006F00FAE493A3F8E493A3C8C582C8CAC583CAA8
:10007F00F0A3C8C582C8CAC583CADFE9DEE780BE60
:0100D200002D
:00000001FF
